:040000006F20C05558
:1000040000000000000000003E1C0000401C000036
:10001400000000005A25000000000000000000005D
:100024005A2500005A2500000000000000000000CE
:100034005A250000000000005A25000000000000BE
:100044005A2500005A2500005A2500005A250000B0
:100054005A2500005A2500005A2500005A250000A0
:100064005A2500005A2500005A2500005A25000090
:100074005A2500005A2500005A2500005A25000080
:100084005A2500005A2500005A2500005A25000070
:10009400881100005A2500005A2500005A25000046
:1000A4005A2500005A2500005A2500005A25000050
:1000B4005A250000E62300005A2500005A250000B6
:1000C4005A2500005A2500005A2500005A25000030
:1000D4005A2500005A250000D61E00005A250000AB
:1000E4005A2500005A2500007C1100005A25000002
:0C00F4005A2500005A2500005A25000083
:10010000397101436EC619A0397141536AC866CA74
:1001100062CC5ECE19A0397101535AD056D252D456
:100120004ED64AD826DA22DC06DE330161408282CE
:1001300041114AC026C222C406C68282B24D410184
:10014000024D924C224CB24B4101024B924A224A40
:10015000B2494101024992442244B24041018280A5
:100160003D432A876373C3029377F700BDEFADE584
:10017000937606FF3D8ABA960CC34CC30CC74CC796
:100180004107E36BD7FE11E28280B306C3408A06C3
:100190009702000096966780A6002307B700A30683
:1001A000B7002306B700A305B7002305B700A304D3
:1001B000B7002304B700A303B7002303B700A302CB
:1001C000B7002302B700A301B7002301B700A300C3
:1001D000B7002300B700828093F5F50F9396850052
:1001E000D58D93960501D58D61B79396270097021B
:1001F000000096968682E78086FA9680C1171D8F4A
:100200003E96E374C3F8A5B7EFF29FF211E583A71A
:10021000018405479AAB3DBF83A781849C438297A5
:1002200003A501842905C5BFEFF29FF011E583A75F
:10023000018405479AAB39BF83A781849C47829785
:1002400003A501843105C5BF03A7018401E58947E2
:100250001EAB8280EFF2DFED239E01821C2313840C
:10026000C18393F7F70795E718379377070299C388
:1002700089471CA0137707041C2011CB93E71700B4
:100280001CA083A781849C4B82972285E1B5F99BB2
:10029000C5BF85461385C183E38AD7FE89460145DC
:1002A000E396D7FE5833B7660040938606C093772F
:1002B000F7008A07B69762079C4361876359070076
:1002C00093F707034147E39EE7FA854755BF0D675C
:1002D000F98F0567CDBFEFF21FE483A401843E8A46
:1002E000822829E8982491476316F70413878183AD
:1002F00014438547639BF602B767004083A707C591
:10030000B73600208906C207C183B697860723A0A7
:100310000700930700032398F18423200700114965
:1003200083A70184238427010DB5C1472398F18455
:100330001D49FDB7DE28114963F38700094963F3BE
:1003400087003E849C4C4204418022858297AA8A81
:100350000145EF00B04F2286AA855685EF00F031A7
:10036000A2850145EF0030529E280D67818F9EA81F
:10037000BE283E94930700032398F184A2A82397F4
:10038000E18479BF83A7018483C61181B83309450D
:1003900063EFE600B42381EED62391EAEFF25FD952
:1003A000B8A783A78184DC438297014565B3828027
:1003B000EFF21FD883A7018403A741844111AC3316
:1003C000184FC833029783A70184B82705C72AC6E8
:1003D00015E1D82305E3BC2391EF83A78184DC4793
:1003E000829783A701843245D833B8B7B833D8A7EA
:1003F00041018DB30945EDBF83A70184942393F692
:10040000F60781EA98371377F7FD98B701473A85E1
:10041000828009460947E39CC6FEB623EDFAD42341
:10042000FDF6EFF2FFD0D03337670040130707C067
:100430001375F6F7131425003A946206144061868A
:100440006355060493F6060383C501810947637C5F
:10045000B50295CABC2785CB1C40635B060293F7A7
:1004600007034147639CE7001374F50F2285EF00F3
:10047000D036930500032285EF00502783A781849F
:10048000DC4B829701473A85F1B10D67F98E6DBF5C
:10049000C164FD140D67E58FF98F0567E390E7FEF2
:1004A0001DEDB707002083C5C707EF00B03F1C4014
:1004B00071771307F7F8F98FC2070D67C183B98FFA
:1004C000617713070708D98FC207C1831CC08D66E7
:1004D0001840658F758FE303D7FA1CC0D5BFEF00B6
:1004E000902C1C4071771307F7F8F98FC2070D673E
:1004F000C183B98F617713070708D98FC207C183FA
:100500001CC08D661840658F758FE309D7F61CC037
:10051000D5BF03A60184B7670040938707C0543254
:1005200093F5F6F713972500BA97E2069843E1860C
:1005300063DE06041377070303C80181094563F6E8
:1005400005092E22D9E151C3382641C3EFF25FBE1F
:10055000984363D20604E5769386F6FB758F4207CF
:100560004183E1761347070193860608558F4207BA
:10057000418398C34146944393F60603639BC600A8
:1005800083A781849C4F82970145E9B60D65698FE9
:1005900065B798C3CDB7F1769386F6F8758F4207A5
:1005A00085664183358FE17693860608558F42072D
:1005B0004183416698C37D160D6585659443F18E30
:1005C000E98EE38FB6FA98C3D5BF8280EFF25FB6AB
:1005D00003A701841C3793E707021CB783A7818414
:1005E000DC4F82970145BDB603A701843E2B11E580
:1005F000CA211D8D0AAB0145828088413E958280CB
:10060000EFF21FB3B707002083C5C7070145EF000E
:10061000702983A701848827A1476318F50005671F
:100620002397E18441472398E1845D151335150034
:1006300015B6EFF2FFAF03A90184376600408327A8
:1006400006C583468900254741116385E604416458
:100650001307F4FFB7360020F98F9106B697860787
:100660008043798C060432941C202300F9001C304E
:10067000A300F9004A20EF00102B2311A9000A243F
:1006800003A90184EF00302A2312A9005A2483A76A
:100690000184FAA383A70184054798A7FA2380332E
:1006A0006319070C98231377F70755E3254763155C
:1006B000E400C93925E12DA015476316E40403873A
:1006C000370063590700A14703A701841CA70D3F0A
:1006D000410149B4B82365FBDA2375F7BC27E5F778
:1006E000B767004083A707C5373700200907C2074F
:1006F000C183BA97860723A0070013070003239836
:10070000E1849947D1B70D476315E402B433054737
:10071000638DE60083A741842285DC4B82970D47D9
:10072000A547E303E5FA4DDD79BFDE23E5F7793D23
:1007300051B70547E310E4FEB833E31D87FCDA2325
:1007400071FB9C3793F70702F1D77D31A5B7854739
:100750006317F700AD47E31FF4FA9939A1BF894643
:10076000E31AD7FAE303F4FE8D47E315F4FA5533A1
:1007700091B719476319E40298231377F70771EBD0
:10078000BC23854603A741846395D7005C4FF1C322
:1007900089A089466394D7001C53D5BF8D46639AC0
:1007A000D70A5C53EDB761E8BA2345E7D843C17671
:1007B0009386F60F758FB7060200631CD70898233F
:1007C0001377F70705EFDE23C9E7B7070000938724
:1007D000872403A701840145231907001CCF8297B2
:1007E000014583A70184C166FD169A2B630FD706C6
:1007F00089466303D50069EF21478DA88546631EAE
:10080000D70003A74184C8338145184F029731E1CF
:1008100083A70184BC27D5FB2DA88946631BD7027B
:10082000D833B7660040938606C01376F700931757
:100830002600B6979C4393168701E18663DA060289
:1008400093F7070383C601816375D6001377070703
:1008500079D303A7018483A7418408339C4B8297F3
:100860008D47E310F5F883A70184254798A785B540
:100870008D66F58FC1BF2147631BE4009C2393F76E
:10088000F707E1FBB70700009387872099B729474F
:10089000E311E4FC982385461377F707E31BD7FAA7
:1008A000B82745DBBA2355F7D843C1769386F60FB0
:1008B000758FC166E31FD7F803A74184C83381450C
:1008C000184F029759F5B70700009387872211B791
:1008D0008386070063D1060483A64184EE2303C602
:1008E000C6022EC6324593160601C1826377E50023
:1008F00032479AABD6ABC532D9BBE37DB7FE637541
:10090000D70023AC0182FDB73367C70265F7054600
:1009100023ACC182C5B70D4798A70D672397E18423
:100920007DB3EFF24FFF03A40184A1441C2413877D
:10093000E7FF1377D70F25C71387D7FF1377D70F95
:1009400041EF1C4C85CB0628B1C05A286373970031
:10095000BA84C204C180268582971E28AA890145CF
:10096000858F1EA83E28A6973EA8FD2DAA8526861F
:100970004E8535231E2899CB0D6781450145239768
:10098000E1841127130700032398E1841E285628C9
:1009900003A7018463EBD7008D471CA7042783A717
:1009A000018484A7B1396FF04FFA99C39547F5B721
:1009B00099471CA7B767004083A707C5B736002033
:1009C0008906C207C183B697860723A0070093064E
:1009D00000032398D184D9B71D47A144E391E7FCD4
:1009E00083A74184DC4782975DBF03C301813766DB
:1009F0000040C1650568A1680147130606C0FD15E2
:100A00001308F8F093880808636967001365050800
:100A1000B767004023A6A7C4828093162700B2962A
:100A20009C42ED8FB3F70701D98FB3E717019CC242
:100A30000507D9BFEFF2CFEF83A70184942713876F
:100A4000E6FF1377D70F01EFEFF0FF8883A701844C
:100A5000982783A7018498A765366FF0AFEF1946F2
:100A60002147E398C6FE94331547639CE60098231C
:100A70001377F70719E7A8338D3F83A781849C5329
:100A8000829783A741849C4782972147D9B7828068
:100A9000EFF20FEA9387018B23A0F184094798A70F
:100AA000370700209306070523A2D184B70700204B
:100AB0009387070C23A4F1848327070582976FF09F
:100AC0006FE9EFF26FE44111370A0020B70A002006
:100AD000E17923170100130A8A01938A4A03938953
:100AE0000908B765004083A745C4139707014183F0
:100AF0002390E186139707016357071683D7018672
:100B00003A84BD8B238FF182938605C063960730AC
:100B100003A705C09387E184420741839AA39A23E0
:100B200093860185137707039AA29A238D6621661F
:100B3000758F9AA303A705C0A5679387F7FB7D8FE1
:100B400083A705C0B1669386F6F8F58F8966B58FE1
:100B50001347070293160701130606085D8F518F8E
:100B6000C18223A0E5C033E7360142079384E184C4
:100B7000138901853766004093050002418383266F
:100B800006C093F606036393B60EB3E73701C1665A
:100B9000C20737660040FD160D658965C1830327CE
:100BA00006C0130406C0758F698F6314B70C83D712
:100BB0000186C18BE1EB1C40A5691387F9F0F98F21
:100BC0001CC08D3D18401440B1679387F7F8F58F2E
:100BD00096209389F9FB33773701139636016354D6
:100BE00006008566B58F962013962601635406008D
:100BF0008966B58F83560900C18A99C213470701D8
:100C00008356090093F6060299C21347070221662C
:100C100093160701130606085D8F518F3766004053
:100C20002320E6C06177C18213070708558F42076A
:100C30004183832606C08355090093F60603639D0E
:100C4000B602617713070708D98FC166C2073766F6
:100C50000040FD160D65C183032706C08E20758FE9
:100C6000698F631EB70041016FF08FCD2320E6C06E
:100C700039B72320F6C025B72320E6C05DBF232067
:100C8000F6C0D9BF1C40856BC207C1837C873C87F7
:100C9000139747016350070C1C401387FBF8F98F2B
:100CA0001CC0EFF01F991840A5679387F7FB14400D
:100CB0007D8FB1679387F7F8F58F962013963601ED
:100CC00063540600B3C77701962013962601635438
:100CD00006008966B58F83560900C18A99C21347F9
:100CE00007018356090093F6060299C213470702CB
:100CF000216693160701130606085D8F518F37662C
:100D000000402320E6C06177C18213070708558F92
:100D100042074183832606C08355090093F60603E4
:100D20006397B602617713070708D98FC166C207B8
:100D300037660040FD160D65C183032706C08E206F
:100D4000758F698FE301B7F22320F6C0FDB723202A
:100D5000E6C0C9B73C87C207C187E3D407D81C40A7
:100D60001387FBF8F98F1CC06D3E1840A567938769
:100D7000F7FB14407D8FB1679387F7F8F58F9620C6
:100D80001396360163540600B3C777019620139675
:100D90002601635406008966B58F83560900C18A0F
:100DA00099C2134707018356090093F6060299C2B8
:100DB00013470702216693160701130606085D8F85
:100DC000518F376600402320E6C06177C182130748
:100DD0000708558F42074183832606C083550900C3
:100DE00093F606036397B602617713070708D98F56
:100DF000C166C20737660040FD160D65C183032733
:100E000006C08E20758F698FE30FB7E42320F6C0EC
:100E1000FDB72320E6C0C9B71397270036971443C0
:100E2000C206C18274873487C206C18663DD0600AC
:100E3000FD1714438A070566D6971306F6F89C43F8
:100E4000F18E14C382973C8793F70708E38B07C89A
:100E500083C7E183B7660040938606C013972700D7
:100E60003697FD1714438A07D29725661306F6F0C6
:100E70009C43F18E14C38297ADB1B73700200506AD
:100E8000BE950586860511E282801C3118219105E8
:100E9000A207D98F239EF5FE09057D16EDB7B7375A
:100EA00000200506BE950586860511E282809C41DC
:100EB00009057D16231FF5FE9105C5BF6199420501
:100EC0004181B767004023A8A7C48280B76700406C
:100ED000938707C00A053E951C4165771307F7986D
:100EE000F98FDD8DC205C1810CC18280B7670040DA
:100EF000938707C00A053E951C4165771307F7FBEA
:100F0000F98FC20713F70501C18319C393C70701FE
:100F100013F7050219C393C7070261771307070880
:100F2000D98FC207C1831CC1184113770703E31C83
:100F3000B7FE8280B7670040938707C00A053E95D9
:100F40001C4171771307F7F8F98FC2070D67C1834A
:100F5000B98F617713070708D98FC207C183C166AC
:100F60001CC1FD160D661841758F718F6313C70084
:100F700082801CC1CDBFB7670040938707C00A05B8
:100F80003E951C4105671307F7E0F98F617713075A
:100F90000708D98FC207C1831CC18280EFF24F9925
:100FA000D93F6FF02F9BB7670040938707C00A05B2
:100FB0003E951441C1671387F7FF9397160163DDD0
:100FC00007001C41F98F05671307F7F0F98F3167A8
:100FD00013070708D98F1CC18280B7670040938729
:100FE00007C00A053E951C4193F7070491CF1C41A9
:100FF00041677D17F98F05671307F7F0F98F2167B0
:101000001307070CD98F1CC18280B767004083A7E4
:1010100007C50E058581C207C1833E95B7370020FD
:101020003E95060586050CC18280B767004083A700
:1010300007C50E058581C207C1833E95B7370020DD
:1010400091073E95060586050CC18280B767004072
:1010500083A707C50E05C207C1833E95B737002099
:101060003E9506050A218280B767004083A707C521
:101070000E05C207C1833E95B737002091073E9504
:1010800006050A218280B767004083A707C50E05C1
:10109000C207C1833E95B737002089073E950605F4
:1010A0000CC18280B767004083A707C513173500BE
:1010B000C207C183BA97373700201907BA971307B9
:1010C000E00386076373B70413D75500FD8981E5F4
:1010D0007D17420741832A07A166558F98C30DE506
:1010E000B707002083C7C7071307E0036376F7023B
:1010F00013D75700FD8B81E77D17420741832A07ED
:10110000E1775D8F239AE184828013D7150085896A
:1011100091C105072A07D9B713D71700858B91C34B
:1011200005072A07C5B7935785001375F50F2205E4
:101130005D8D828037670040F177232207C4938753
:1011400007F02396F184B167938707F02320F7C453
:1011500001458280EFE2DFFD32849374F507268536
:1011600042042E894180DD352286AA854A853133A5
:101170002685A285093F01456FE0DFFD37050400A4
:10118000EF10804E73002030292C73002030EFE2E6
:101190003FFA0111680002C602C802CA02CC02CEA0
:1011A000EF1000713247B74795089387074009450C
:1011B0006300F702B7E7B805938707800545630921
:1011C000F700B777DC02938707C06315F700014586
:1011D000EF10606C854537058000EF10207B0561BE
:1011E0006FE05FF7EFE2DFF4374500000D441305D1
:1011F000C5F223AA8186EF10F04703C7A1861367C3
:1012000027002385E18683C7A1866314F400EF10CD
:10121000E02B6FE03FF4EFE2BFF13745000013052C
:1012200085F4EF10304583C7A18693F7D70F238548
:10123000F18603C7A18B11C7154723AAE1866FE08A
:101240007FF10547DDBFEFE2BFEE01113705040076
:10125000EF10804191470544B70404003ECA0808D6
:10126000C14726C83ECC22CEEF10A0373707014039
:10127000832707402800C58F2320F740930740129B
:101280007C8422C623050100EF10A05205616FE0A7
:101290007FECEFE2FFE9AA842E8411458545EF102B
:1012A000006DB1CCB766004083A706C441677517CF
:1012B000F98F23A0F6C4B717014003A74780B716DC
:1012C000F0FFFD16758F23A2E78003A7C780F9768C
:1012D0009386F67F758F23A6E78003A74780B746DE
:1012E0000400558F23A2E7803747024083270780F9
:1012F00021C893E727002320F7806FE0BFE5376719
:101300000040832707C4B716F0FFFD1693E72700B8
:10131000C207C1832320F7C4B717014003A7478042
:10132000758F23A2E78003A7C780F9769386F67F9F
:10133000758F23A6E78003A74780B736030055B70C
:10134000F59B55BF238901848280A3890184828013
:10135000EFE21FDE05492A84631225039384218569
:101360009C2091EB13051008F53393050003054508
:1013700080A0AD3E014422856FE0DFDD8947631028
:10138000F50293843185802019E813052008D933AC
:1013900093050003094523802401893EE9BF0544E4
:1013A000D9BFEFE2FFD837680040032708C5C16501
:1013B0001385F5FF83D64185B7370020698F1386E3
:1013C0006700329706071843938505C00111F98D10
:1013D000638CD500832708C593F606C0E98FB297C2
:1013E00086079843D98E94C3B766004083A746C446
:1013F00013870186C207C1831EA31A2383D7C18422
:10140000138401867D8F1377072009CF4167130767
:10141000F7DF23A2E6C49386618598220507137738
:10142000F70F98A21A20F98FC207C18763D407006B
:10143000EFF02FE91E2003D7C184F98F93F70740FF
:1014400089CFC1679387F7BF376700402322F7C46E
:10145000B707002083A7470582971A2083D7C18446
:101460007D8F9316270163D806003967B766004061
:101470007D1723A2E6C41A20F98F13973701635A08
:101480000700BD6737670040FD172322F7C40145F9
:10149000912D03D7C1841E20F98F13974701635EF6
:1014A000070083A74181638F070E912BBD673767C4
:1014B00000409387F77F2322F7C41E2003D7C184FF
:1014C000F98F93F70710E1CFC16737670040938624
:1014D000F7EF2322D7C4032687C49386818593150B
:1014E000060163DA050A9042050690C28C420D4659
:1014F0006375B60A032607C4FD17218A59EE032631
:1015000007C49385C1857D8E3765004090C11387E0
:10151000C1850146130305C0A148931526003388F1
:101520006500032808000010A2953378F80023A076
:1015300005FF0506E31316FF10431366160010C3DC
:1015400010437D8E2320C5C41043799A10C31843DD
:10155000F98F2320F5C437670040832747C493F7EA
:101560000740E5DFC1679387F7BF37650040C16576
:101570002322F7C4130505C08147FD1521481397A1
:10158000270010103A96032606FE2A9785076D8ECF
:1015900010C3E39607FF23A006001D45A1230561A4
:1015A0006FE05FBB09453D2B11B783C7A18B81C796
:1015B000154723AAE1868280114723AAE18682800B
:1015C0009387A18698231367170098A38280938737
:1015D000A18698231377E70F98A38280828091E5F4
:1015E000854733B5A700060582800945828083A719
:1015F00001840547942393F6F607639FE602B82318
:10160000930620026305D702930610020945631072
:10161000D708372700001307A79AEFE27FB1239975
:10162000070098CF0145029701456FE0BFB2372709
:10163000000013072798D5B71306100201456398D9
:10164000C60494336385E60409466399C6009AABE1
:10165000371700001307C76E98CF82800D46639836
:10166000C6009AAB3717000013072770F5B7A545DA
:10167000639DB600F623636AD7003717000013078F
:10168000876D96AB98CF90A7828009458280828033
:1016900003A701849306100201451C2393F7F70763
:1016A000639BD7021C3329465433639BC700894789
:1016B00063E2D702382393874186B69798A3828046
:1016C0002D466399C700894763E6D700383393876F
:1016D0008186E5B70945828083A701840145D83317
:1016E000854763E4E70013854188828083A70184EE
:1016F00009470145DC336365F700138541863E9554
:10170000828083A7018409470145DC336365F700C4
:10171000138581863E958280EFE29FA183A7018495
:1017200023850700452CB767004085663766004073
:10173000938707C09386F6F0930506C298439107F6
:10174000758F23AEE7FEE39BB7FE9307F00F2322CE
:10175000F6C4EFF03F9E8145014523AA0186EFF0D4
:101760005FB35145EF10604585450545EFF07FB209
:101770006FE05F9EEFE2DF9B11670347B7F683A739
:101780000184014598B723950700EFF02FF39305E7
:1017900000200145EFF08FF3C1450145EFF00FF553
:1017A000930500040145EFF05F88930500080145AB
:1017B000EFF0BF850145EFF06FFEB707002083C54E
:1017C000C7070145EFF01F8E0145EFF0AFF6376711
:1017D0000040032607C0C1679386F7FF93171601E1
:1017E00063DF0700832707C0F58F85669386F6F0D1
:1017F000F58FB16693860608D58F2320F7C037672B
:101800000040832707C093F7070485C3832707C0D9
:10181000C166FD16F58F85669386F6F0F58FA16695
:101820009386060CD58F2320F7C0930500600545ED
:10183000EFF0CFE99305000C0545EFF00FFD9305A0
:1018400000020545EFF08FEA37670040832747C065
:1018500093F7070485C3832747C0C166FD16F58F3C
:1018600085669386F6F0F58FA1669386060CD58F74
:101870002322F7C037670040032647C0C16793861D
:10188000F7FF9317160163DF0700832747C0F58F23
:1018900085669386F6F0F58FB16693860608D58F38
:1018A0002322F7C0930500600945EFF02FE293056E
:1018B000000D0945EFF06FF5930500020945EFF0C3
:1018C000EFE237670040832787C093F7070485C39B
:1018D000832787C0C166FD16F58F85669386F6F06F
:1018E000F58FA1669386060CD58F2324F7C0376742
:1018F0000040032687C0C1679386F7FF9317160140
:1019000063DF0700832787C0F58F85669386F6F02F
:10191000F58FB16693860608D58F2324F7C001455D
:10192000EFF0AF8C23890184A3890184054723AAA2
:10193000E1866FE03F82EFE2AFFF93858180EFE0C9
:10194000BFCA6FE03F81EFE2AFFEB705002093858D
:101950008516EFE07FC96FE0EFFF83A70184AC330A
:10196000914763EEB700EFE2AFFCB7070020938723
:10197000070A8E05BE95EFE03FC76FE0AFFD01455A
:10198000828083A70184CC33894763EEB700EFE2FE
:101990002FFAB7070020938707098E05BE95EFE061
:1019A000BFC46FE02FFB0145828083A70184CC3345
:1019B000894763EEB700EFE2AFF7B70700209387E0
:1019C00007088E05BE95EFE03FC26FE0AFF8014516
:1019D00082808280B7670040054723A0E7C423A028
:1019E00007C4096723A207C4130707C02396E1842D
:1019F0000967130707C023A0E7C401458280EFE20F
:101A00002FF3B767004083A707C4376700404168DA
:101A1000C207C1838146130307C07D189385C18C1B
:101A2000A148139626003305660008412E968506C8
:101A30003375050108C2E39616FF93E6074023209D
:101A4000D7C493E61740F99BC207C1832320D7C4AC
:101A500093E607402320D7C4B766004003A746C4D7
:101A60001377074065DF41671307F7BF23A2E6C47A
:101A70004168376700408146130307C07D18A148BD
:101A8000139626003385C50008411A9685063375DE
:101A9000050108C2E39616FF93E787402320F7C4A9
:101AA000832707C4C207C18393E747002320F7C4F5
:101AB000EFF04FF36FE00FEAEFE28FE7376400409B
:101AC000832704C4C207C183ED9BC207C1832320BF
:101AD000F4C4EFF04FF4B167938707F02320F4C408
:101AE0006FE04FE7EFE2CFE49D471384C1866303C5
:101AF000F50008C01C401547636DF70011678A07A1
:101B00001307C704BA979C43828783A7818781E71D
:101B10006537994711A095471CC039A0713F91477F
:101B20001CC0054723ACE1866FE0CFE289475CA08B
:101B30008D47DDB75C20FD1793F7F70F5CA05C20A5
:101B400093F7F70FF5F39147C1BF3767004083273D
:101B500007C4C207C18393E707012320F7C4954751
:101B60001CC0A9475CA0C9B75C20FD1793F7F70F0D
:101B70005CA05C2093F7F70FC5FB37670040832715
:101B800007C4C207C183BD9BC207C1832320F7C41A
:101B900099471CC023AC018641BFEFE26FD90545D0
:101BA000EF00D0407164512AEF00D07E130504206D
:101BB000EF10000483A58181374500001305450619
:101BC000EF10001A3745000013054507EF10802A73
:101BD00013050420B12C3745000013050509EF104B
:101BE0006029E12E3121374500001305450AEF1029
:101BF0006028EF00006EEF0000713745000013050C
:101C0000850BEF10202789659385F5C105456D2A61
:101C1000374500001305C50CEF10C025EFF02FD796
:101C2000EFE01FE79544EFF00FE283A74187E39EC3
:101C300097FE7D210125EF00007FE924FDB701A07B
:101C4000B707EFBE37E700E0938707083CC701A05E
:101C5000B71702409843B706FFF04111136717000A
:101C600098C3D84337060200758FD8C39843B70688
:101C7000F7FEFD16758F98C39843B706FCFFFD1657
:101C8000758F98C3D843B70601FFFD16758FD8C36B
:101C900037079F0098C702C402C69843C166558F94
:101CA00098C3B716024005679C42F18F3EC6A24713
:101CB00085073EC4B24781E7A247E397E7FEB7171F
:101CC00002409C431397E7006357070685473EC6CB
:101CD00032478547631FF704B7170240D843B7065A
:101CE000C1FFFD16D8C3D843D8C3D84313670740F4
:101CF000D8C3D843758FD8C3D843B7062900558FAA
:101D0000D8C39843B7060001558F98C398439316DC
:101D10006700E3DD06FED843B7160240719BD8C3C7
:101D2000D84313672700D8C32147DC42B18BE39E19
:101D3000E7FE4101828002C661BFB7160240DC4265
:101D40001146B18B138781816385C7002146638863
:101D5000C702B7177A00938707201CC3B717024042
:101D6000DC43918393F6F700B70700209387470E73
:101D7000B69794231C43B3D7D7001CC38280DC42A0
:101D8000D4424166C983BD8BF18E89074546639372
:101D9000C700C94781EEB746024083A60680C18AC4
:101DA00089CEB7167A009386062021A8B71602407E
:101DB000D4421396E600E35606FEB7163D0093861E
:101DC0000690B387D70251BFEFE28FB60111AA8404
:101DD0002E840945854502CA02CC231E010002C695
:101DE00002C8EF00B03AE082370400404C08130507
:101DF0000440E484231D0100231B0100EF00F03A9E
:101E00000546854513050440EF0050429307D01264
:101E10007C8685475C87680085473EC8EF0070195F
:101E2000854513050440EF00F03E05616FE08FB279
:101E3000EFE20FB07971AA8485453705020002CA26
:101E400002CC02CE02D002D202D402D602C602C80E
:101E5000EF00D03385451145EF0070319147FC828A
:101E6000371401408D473ECC4C08E14713050480F0
:101E70003ECEEF001000A1474C08FC821305048001
:101E800091473ECEEF00E07E930760137C86854746
:101E90005C8768008547374400403EC8EF007011FA
:101EA000B7070C000C10130504403ED426D002D214
:101EB00023160102EF00F03A05461305044093058E
:101EC0005052EF007044854513050440EF00704206
:101ED00045616FE02FA8411122C6374400409305A9
:101EE000505213050440EF00304709C91305044060
:101EF000EF0070451375F50FA386A18832444101A8
:101F000073002030EFE2CFA293840189802039E072
:101F1000938601891387D188182311469387D18826
:101F2000630EE60098236946630AE6009823594643
:101F30006306E60098231D46631CE6009C23138776
:101F4000C187232007003CA38547232207009CA2CA
:101F50006FE04FA085476310F40221469385C18747
:101F60000545EFF0EFBE6DF523870188A3878188D3
:101F700089479CA0F1BF89476312F40283C7E188B7
:101F800013071003E376F7FCA38701889387C187C3
:101F900023A0070023A207008D47E1BF8D47E31967
:101FA000F4FA21469385C1870545EFF06FBA4DF1EC
:101FB000A38601882380040061BFEFE26F9741117F
:101FC0008545214502C202C402C6EF00501AFD77C2
:101FD0007C8237150140930780043EC64C008D4734
:101FE000130505C03EC4EF00C06841016FE08F9645
:101FF000EFE20F9441118545054502C002C202C4BB
:1020000002C6EF00D016B1450545EF0060770544E4
:102010001149B14485670A853EC04AC226C422C61A
:10202000C923B5450545EF00A07589670A853EC0FF
:102030004AC226C422C67523B9450545EF0040743F
:1020400091670A853EC04AC226C422C6592BBD45A7
:102050000545EF00E072A1670A853EC04AC226C46A
:1020600022C641233707014083270740BD66D58F2D
:102070002320F74041016FE0EF8DEFE26F8B138774
:1020800041891E23A9468507C207C183B3F6D7023B
:102090001EA385EA3715014013848189130505C005
:1020A000231007000620EF00E06BBD677D8D6318ED
:1020B000950005472383E1881A20239FE1806FE084
:1020C0006F891547B3F7E702FDFB3715014013058C
:1020D00005C0EF002069FD777D8D239CA188C5B7E1
:1020E000EFE28F829387618898231377F70F63035A
:1020F0000712238007009387E1819A239387C18188
:102100009E239389E181138AC181C207C1836383BE
:10211000E710B1441384C187B14B354CB94CA14A87
:1021200003D7090083570A00B98FB3D79740858B2F
:10213000A1C383D7090003C93189138D3189B3D76E
:102140009740858B13F7F40FDDC3894763997405B6
:102150006947B306F400942213F5F70F6381E60C88
:102160008507E39857FFA30204007D1923002D0182
:102170008504C147E396F4FA83D709000547C207EF
:10218000C1832310FA00A388E18821469385C18783
:102190000545EFF0EF9B51E1A3880188BDA8631EC0
:1021A00087011147B306F400942213F5F70F6388F3
:1021B000E6068507E39857FF7DB79D46631E9701A6
:1021C0005947B306F400942213F5F70F6389E60428
:1021D0008507E39857FF41BF3307F400182313F531
:1021E000F70F630ED7028507E39857FFADBF93073C
:1021F0002900A29763967401694798A30509BDB7A2
:10220000631487011147D5BF631497015947F5B788
:102210001D47E5B783C71189ADFB6FD07FF29305EA
:1022200015001D46098EA2952295EF005028A303A4
:10223000040025BFEFD2DFEF93874188982393876F
:1022400051889C2393F7F70F6384E7061384418832
:102250009384518818209C20B98F858B91CB1C20AA
:10226000858BA9CB374500001305C50DEF009040C5
:1022700018209C20B98F898B91CB1C20898BA1C3FE
:10228000374500001305C510EF00D03E18209C20F4
:10229000B98F918B91CB1C20918B9DC73745000046
:1022A0001305C513EF00103D1C2093F7F70F9CA0FA
:1022B0006FD05FEA374500001305450F45BF37452E
:1022C000000013054512C9B7374500001305451531
:1022D000D1BFEFD2FFE541118545114502C202C4CD
:1022E00002C671259307000F7C82371501409307C2
:1022F00080043EC64C008D47130505803EC4952ED4
:1023000041016FD03FE5EFD2BFE241118545054560
:1023100002C002C202C402C6992D914501458D2119
:1023200005441149B144C1470A853EC04AC226C48A
:1023300022C6452C95450145A121930700020A8537
:102340003EC04AC226C422C6692C994501450D29C2
:10235000930700040A853EC04AC226C422C65124FF
:102360009D4501453129930700080A853EC04AC2B0
:1023700026C422C6BD24370701408327074093E7C0
:10238000070F2320F74041016FD0DFDCEFD25FDA87
:10239000138761891E2385448507C207C1831EA355
:1023A00063F8F4021384A18937150140035904002E
:1023B000130505802310070075261375050F631795
:1023C00025011A202390E182238691886FD09FD81F
:1023D000F5DF371501401305058069261375050FD4
:1023E000239DA188E5B7411122C6370400408545E9
:1023F00013050440A92505C5854513050440A12DF5
:10240000EFF0BFC7613783C7F18893F7F70F81CB30
:102410001387E1881C23850793F7F70F1CA3324429
:10242000410173002030EFD2BFD09387C188982339
:10243000138421891377F70F25C383480400238071
:10244000070023A4018891460143014581470148C3
:10245000014713868188114F954F9942214E9385EC
:1024600001828E21B3D5D540858999E993F5F60F80
:102470006391E60509071377F70F0548054385487B
:102480008506E39EC6FD6303080018B211C13CA295
:1024900063040300230014011C2091CB1146938593
:1024A00081880945EFE0DFEA19E1230004006FD0DD
:1024B0007FCA6394F50179177DBF6397550089073B
:1024C00093F7F70F05455DBFF917DDBFEFD25FC684
:1024D0003745000013050517EF00D0199307800852
:1024E00073B007808545370500104D213D65852A6D
:1024F0001305000FAD22054589453126EFF04FF554
:10250000EFF0BF83EFE0BFC83D65892215C13D658F
:10251000B9220545EFF00FDD9307800873A007800F
:102520003745000013054518EF00D0146FD09FC247
:102530001305000F212A01C51305000FD1BF370570
:102540000400292271D937050400112A37450000FB
:1025500013058517EF001012C1B701A097E1FF1F07
:102560009381C140173100201301C1A91725000034
:102570001305C5CB97E5FF1F9385C5A813868183F7
:1025800063FAC5008322050023A0550011059105BB
:10259000E3EAC5FE138581839385018F6377B500D8
:1025A000232005001105E36DB5FEFD42739002BCCA
:1025B0008D4273904280930280087390023097E2BC
:1025C000FFFF938262A493E2320073905230EFF0E7
:1025D0002FE897F2FFFF9382825C739012347300AE
:1025E00020305841032805004C4537060140930729
:1025F00006403E979346F8FFB1C583250640F58D0A
:102600002320B640D043F18ED4C31443B3E6060171
:1026100014C3184190479346F7FF758E90C7D04773
:10262000F18ED4C7144541466399C6009447D98EAC
:1026300094C7D447558FD8C78280B6979443558F97
:1026400098C382801C43F58F1CC38280B70701406A
:1026500093870740DC4B7D8D3335A0008280B70720
:10266000014023AAA7408280B707014023AAA740C0
:1026700082809C4513F7070113F8F70001C7D84182
:102680003368E80037270240145B3707000F758F67
:102690004DEB8546238ED188371701406315E50041
:1026A0009A2135839AA18E2113F7F50F39C318416A
:1026B0008146854E3D4F930F800293028004214E48
:1026C0003396DE00B3F8C500631116039398260015
:1026D00033131F011343F3FF3377E300B3181801DB
:1026E00033E7E8006397F70750C98506E39AC6FD0C
:1026F00018C11307F00F6375B70454412146854E86
:102700003D4F930F800293028004414EB398CE0058
:1027100033F715016392E8021317260001173313EC
:10272000EF001343F3FFB376D3003317E800D98EDD
:102730006395F703232A15010506E319C6FD54C165
:10274000828037170140E310E5F603C7C18921DF16
:1027500081BFE39C57F810C949BFE39F57FC23286A
:102760001501D9BFB7170140631AF50083C7C189A6
:1027700091C7084536054205418182800845E5BF7D
:1027800013F7C50F93F73500B7050140BA95944587
:102790008A073D473317F7001347F7FF758F98C532
:1027A00098453315F500598D88C5828023A0A18AEC
:1027B000828003A7018A854714216310F7021C3128
:1027C000639CE7023C21960793E707F837E700E0B0
:1027D00093F7F70F36972300F740054793D7560036
:1027E0003317D700544189CE938707048A07B7E689
:1027F00000E0B69798C38280EDF33C219607F9B7C5
:1028000093870706E5B7377700401C43F19B5D8D42
:1028100008C3B7F700E003A707D11367470023A851
:10282000E7D005476391E50203A707D15D9B23A885
:10283000E7D07300501037F700E0832707D1ED9BF6
:102840002328F7D0828003A707D11367070223A8A4
:10285000E7D003A707D11377F7FD1367870023A8F5
:10286000E7D07300501003A707D11377F7FD136764
:10287000870023A8E7D07300501037470240032792
:1028800007801377070445DB03A707D11367070207
:1028900023A8E7D04DB7B7170240D843B70640FF8B
:1028A000FD16758FD8C3D8435A05598DC8C3828089
:1028B000371702405C439146B18B6385D700A14630
:1028C0006382D706B7177A00938707201CC1371693
:1028D00002405C42370700201307470F9183BD8BEE
:1028E000BA9794231C41B3D7D7005CC15442A1824C
:1028F0009D8ABA969422B3D6D70014C55442AD82AD
:102900009D8A36971823B3D7E7005CC558423983B0
:10291000937637001387418236971823B3D7E7029F
:102920001CC982805C435843C166C983BD8B758FC7
:102930008907C5466393D700C94701EF374702406F
:1029400003270780418B09CF37177A001307072029
:1029500021A83717024058439316E700E3D606FE36
:1029600037173D0013070790B387E70285B799C56E
:10297000371702401C4F5D8D08CF8280B717024089
:10298000984F1345F5FF798D88CF828099C5371709
:1029900002405C4F5D8D48CF8280B7170240D84F10
:1029A0001345F5FF798DC8CF82801E21373701404E
:1029B000130707C0C207C1836304E502370700405D
:1029C0006300E50213070740630CE500371700407A
:1029D000930607806306D500130707C06316E5005A
:1029E000BA2193F7F7F8D98FFA2193F7F7CFC207F7
:1029F000C183D98F1EA1DE215EB59E211EB5B737DA
:102A00000140938707C06314F5009C251EB98547D4
:102A10005EA982801E2189C593E717001EA18280CE
:102A2000C207C183F99BC207C183CDBF5E2501C622
:102A3000DD8D4EA5828093C5F5FFFD8DDDBF1E297E
:102A40004A25ED8F4205418189C76D8D3335A00040
:102A500082800145828093C5F5FFC205C1810EA920
:102A60008280EFD2EFEC1629F577FD17F58FF6216E
:102A7000DA257971D58F1EA95625FD779387379F63
:102A8000F58FD6212A842EC6D58F9625D58FB625CB
:102A9000D58F5EA55E29C207C18393F7F7CFD98F83
:102AA0005EA96808EFF0DFE0B74701409387078031
:102AB000B245631EF402A2576547B387E702984107
:102AC000930640060A07B3D7E70233D7D702B3F716
:102AD000D7021207920793872703B3D7D702BD8B7C
:102AE000D98FC207C1831EA445616FD0AFE692574C
:102AF000E1B791C55E250967D98F5EA582805A2509
:102B0000F977FD17F98FD5BF13F7F50F85471583B3
:102B1000B395B7006319F7009307C500984301CE3A
:102B2000D98D8CC38280894693074501E318D7FE6F
:102B300093070501E5B793C5F5FFF98DDDB793F56B
:102B4000F51F4EA182804A211375F51F82800A214C
:102B50006D8D3335A000828013F7F50F8546158300
:102B6000B397B6006311D7025A25F98F1A21014590
:102B70004207418381CB0545A181B315B5006D8F17
:102B80003335E000828089466314D7001A29F1BFEB
:102B90005A29E1BF83A7818137177A0013070720DD
:102BA000B3D7E70293F7F70F2383F18A1307803E29
:102BB000B387E7022392F18A8280B7F700E0D84317
:102BC0008146799BD8C303D7418A3306A70290CBAD
:102BD000D4CB98431367070198C398431367170230
:102BE00098C3D843058B75DF9843799B98C382803F
:102BF000EFD20FD42A841165011185451105EFF03C
:102C00001FD7930700207C82371501408D473EC4B3
:102C10004C00E147130505803EC6EFF09FA522C892
:102C200037440140B70708000C08130504803ECC68
:102C300002CA231E0100EFF0DFE285451305048080
:102C4000EFF03FEB05616FD0EFD0EFD2CFCCB744C0
:102C50000140AE8932890144938404806345240194
:102C60004A856FD08FCE930500042685EFF03FEEA6
:102C70007DD9B38789008385070026850504C205B1
:102C8000C181EFF0DFEBD9BF138781821C439386AC
:102C9000018F3E95636BD500B75600209386068062
:102CA00063E5A60008C33E858280FD57EDBFB3C72C
:102CB000A5008D8B3307C50081E78D4763EDC70005
:102CC000AA87637EE508942185078505A38FD7FE33
:102CD000E3EBE7FE828093763500AA8789CA9421C8
:102CE00085078505A38FD7FE93F63700C5BF93767A
:102CF000C7FF138606FE63F0C70683A3050083A201
:102D0000450083AF850003AFC50083AE050103AE68
:102D1000450103A3850183A8C5019385450223A02E
:102D2000770003A8C5FF23A2570023A4F70123A619
:102D3000E70123A8D70123AAC70123AC670023AE6C
:102D400017019387470223AE07FF75B7904191079C
:102D5000910523AEC7FEE3EBD7FEE3E6E7F68280FC
:102D600039713EDA2ED232D436D63AD842DC46DE3B
:102D70009387C18222CC804326CA06CEAA8409C486
:102D80001C4C99E32285FD290C445410268622858B
:102D900036C6EF009013F2406244D2442161828033
:102DA000011126CA4AC806CE22CC4EC652C4AA84F5
:102DB0002E8901C51C4D91E3F1219C4C804499E37F
:102DC0002685C921971700009387873E631BF4026D
:102DD000C0405E24A18BB1C71C48A1C7FD59294A38
:102DE0001C4483450900FD17B1E91CC463DD0706D7
:102DF0002286A94526856920FD576308F5022945E5
:102E000035A0971700009387A73C6314F400804413
:102E1000C9B7971700009387A737E31CF4FAC0449B
:102E20004DBFA2852685192A55D97D55F2406244A9
:102E3000D2444249B249224A056182801CC4050934
:102E400063D70700184C63CAE700638845011C403C
:102E50001387170018C08CA361B7228626850D2022
:102E6000E31035F9D9B71C401387170018C029475C
:102E700098A371B79387C182AA8588436FF05FF2E8
:102E8000011122CC26CA4AC806CE4EC6AA842E8973
:102E9000328401C51C4D91E3F526971700009387F6
:102EA00027316317F406C0401C4C1CC45E24A18B60
:102EB000C1C31C48B5CF1C4808409379F90F13795A
:102EC000F90F1D8D5C486346F500A2852685692CA7
:102ED00025E51C440505FD171CC41C40138717007D
:102EE00018C0238037015C486388A7005E24858B67
:102EF00081CBA9476316F900A2852685B5240DED7F
:102F0000F24062444A85D2444249B2490561828016
:102F1000971700009387C72B6314F400804469B7A8
:102F2000971700009387C726E310F4F8C044ADBF9D
:102F3000A2852685212041D17D59D9B7411193879A
:102F4000C18226C2844322C44AC006C62A892E846E
:102F500089C49C4C99E326853526971700009387F2
:102F60002725631BF402C0400317C4009317070111
:102F7000C18393F68700ADEA93F6070195EEA54766
:102F80002320F900136707045AA47D55B240224458
:102F9000924402494101828097170000938747239A
:102FA0006314F4008044C9B7971700009387471E45
:102FB000E31CF4FAC0444DBF918B9DC34C5889C9A2
:102FC000930744046384F5004A85292B232A0402CD
:102FD0005E242322040093F7B7FD5EA41C481CC0A6
:102FE0005E2493E787005EA41C4899EB5E241307D8
:102FF000002093F707286385E700A2854A85912979
:103000005E2413F717001DC35C4823240400B30794
:10301000F0401CCC1C480145B5FB8317C40013F7D6
:1030200007082DD793E707045EA485B7898B01476E
:1030300091E3584818C4F9BFDE25011122CC26CAF5
:1030400006CE4AC84EC613F78700AA842E8479EBB1
:10305000D841634DE000B841634AE0000145F240C9
:103060006244D2444249B2490561828058547DD7B6
:1030700003A904009396370123A0040063DB06062E
:1030800070485E24918B99C75C401D8E5C5899C333
:103090003C401D8E5C540C50814626858297FD571E
:1030A0005A24631DF5009440F54763E8D706B70737
:1030B00040208507B3D7D700858BA5C31C482322A2
:1030C00004001CC09317370163D80700FD57631431
:1030D000F5009C4091E368C84C5823A02401BDDD55
:1030E000930744046384F5002685ED2E232A040209
:1030F000B5B70C500146854626850297FD572A86AE
:10310000E311F5F89C40B5DF75476385E700594743
:103110006393E70423A0240191B7136707045AA41B
:103120007D5535BF83A90501E38A09F203A905008E
:103130008D8B23A0350133093941014791E3D849EB
:1031400018C4E35D20F11C540C50CA864E862685B7
:1031500082976347A0005E2493E707045EA4C9B783
:10316000AA993309A940F1BF9C49A5C3011122CCFA
:1031700006CE2A8411C51C4D81E72EC62122B245F8
:10318000971700009387C702639CF5004C40839714
:10319000C5009DC722856244F24005616FF0DFE9FA
:1031A000971700009387C7026394F5000C44C5B7D6
:1031B000971700009387C7FDE39BF5FC4C44C1BF04
:1031C000F2406244014505618280014582804111DF
:1031D00022C406C62A844EA572A5232005002322F8
:1031E0000500232405002322050623280500232AA1
:1031F0000500232C0500214681451305C505EFC0B8
:103200003FF697170000938787B25CD097170000AE
:103210009387A7B41CD497170000938787B85CD412
:10322000971700009387E7BA00D01CD8B240224419
:103230004101828097050000938545F391AA4111D1
:1032400026C2130680069384F5FFB384C4024AC0E5
:103250002E8922C406C6938544070D2E2A8401CDEB
:103260002320050023222501310508C41386840686
:103270008145EFC0FFEE2285B240224492440249CC
:10328000410182801C4DA5E7411106C622C4970763
:103290000000938767FA1CD5938741839C432324BE
:1032A000050423260504232805046314F500854737
:1032B0001CCD2A84352848C022851D2808C42285B3
:1032C000052848C4484001469145EFF05FF00844A6
:1032D0000546A545EFF0BFEF48440946C945EFF064
:1032E0001FEF85471CCCB24022444101828082807E
:1032F00041119387418326C284434AC006C69C4C31
:1033000022C42A8981E72685EFF0DFF793848404BD
:103310008044DC40FD1763D607009C40B9CF844051
:10332000C5BF0317C40039E7C17785072322040608
:103330002320040023220400232404005CC4232847
:103340000400232A0400232C040021468145130590
:10335000C405EFC0FFE0232A0402232C0402232427
:103360000404232604042285B240224492440249E4
:10337000410182801304840671BF91454A85EFF0B4
:103380001FEC88C049FDB1472320F9000144E1BF8B
:10339000797122D44AD052CC56CA5AC85EC606D6D3
:1033A00026D24ECE2A8AAE8A130485040149054BE3
:1033B000FD5B09ECB25022544A8592540259F249FD
:1033C000624AD24A424BB24B45618280044483290F
:1033D0004400FD1963D409000040E1BFDE24637B93
:1033E000FB008397E40063877701A6855285829A64
:1033F0003369A90093848406E9BF1971A6DAAE8403
:103400008395E500A2DC86DE328463DB0500DE24E2
:1034100023A0060093F7070885E7930700401DA047
:10342000300836C6EF007020B246E34205FE724710
:10343000BD67F98F7977BA9793B717009CC2F1BF30
:10344000930700041CC0F6506654D6540145096128
:103450008280DE25011122CC06CE26CA4AC8898B7D
:103460002E8489CF930774041CC01CC885475CC890
:10347000F2406244D24442490561828074003000C7
:10348000AA84EFF09FF7A2452A892685012219E92F
:103490008317C40013F7072061FFF19B93E7270010
:1034A0005EA4C9B797070000938707D99CD45E2410
:1034B00008C008C893E707085EA4A2475CC8B247E3
:1034C00081CF8315E4002685EF00D01811C55E2456
:1034D000F19B93E717005EA45E243369F90023167D
:1034E000240179B7DDC183A7C5FF411122C406C6F7
:1034F00026C21384C5FF63D307003E94AA84EF005D
:10350000301C9387818A9C4381EF2322040023A4EB
:10351000818A2244B2402685924441016F00701A8C
:10352000637EF40014403307D4006396E7009843A9
:10353000DC43369718C05CC0D9BFBA87D84319C3DB
:10354000E37DE4FE94433386D700631F860010407A
:10355000B29694C33386D700E31DC7FA104358438D
:10356000B29694C3D8C375B76375C400B1479CC005
:103570004DB71040B306C4006316D7001443584338
:10358000B29614C058C0C0C369B78280011126CA60
:1035900093843500F19806CE22CC4AC84EC6A104C9
:1035A000B14763F3F404B14463E2B4042A89EF0041
:1035B00030119387818A98433A8439E09387C18A8E
:1035C0009C4391E781454A85252F23A6A18AA6859C
:1035D0004A853D27FD5963193507B1472320F90076
:1035E0004A85EF00100E29A0E3D004FCB1471CC1AE
:1035F0000145F2406244D2444249B24905618280A9
:103600001C40858F63CF0702AD4663F6F6001CC0F1
:103610003E9404C031A05C406313870223A4F18A66
:103620004A85EF00100A1305B4009307440061991E
:103630003307F5405DDF3A94898F1CC05DBF5CC3E2
:10364000C5B72287404095BF130435007198E30247
:1036500085FCB305A4404A856525E31C35FBB5BF51
:103660001C46FD171CC663DA0700184E63C5E70049
:10367000A9476394F5006FF0BF801C422E85138725
:10368000170018C28CA38280011122CC26CA4AC816
:103690004EC652C406CE2A89AE893284B304D600FF
:1036A0007D5A63149400014509A80C204E864A8572
:1036B000EFF01FFB0504E31645FFF2406244D244DD
:1036C0004249B249224A05618280357122CD26CB1A
:1036D0004AC94EC706CF52C556C35AC1DEDEE2DC28
:1036E000E6DAAA89AE843289368409C51C4D99E38D
:1036F000EFF05FB997170000938787AB6398F40CDE
:1037000083A44900DE24A18BE5C79C48F5C3930739
:103710000002A304F1029307000302D22305F10281
:1037200022C6930B5002971A0000938A6AAC054C8C
:10373000294B4A841C2099C3639F770DB30C244105
:10374000638E0C00E6864A86A6854E85EFF0DFF391
:10375000FD57630FF51C9256E69636D21C206389FE
:10376000071CFD571309140002C802CE3ECA02CC42
:10377000A309010482D483450900154656852D27E7
:1037800013041900C24751E913F7070109C71307CA
:103790000002A309E10413F7870009C71307B00269
:1037A000A309E104834609001307A002638FE6061C
:1037B000F2474A84814625461820930514001307D2
:1037C00007FD6377E60AB5CA3ECE85A897170000C5
:1037D000938707A06395F40083A4890025B7971702
:1037E00000009387E79AE39FF4F083A4C90019BF10
:1037F000A6854E85EFF08FF419D97D55FA406A44BD
:10380000DA444A49BA492A4A9A4A0A4BF65B665C44
:10381000D65C0D618280050431BF330555413315F7
:10382000AC00C98F3EC82289B9B73247930647001A
:10383000184336C6634707023ACE18209307E002C2
:10384000631DF70418309307A002631BF702B24709
:103850000904138747009C433AC663C107023ECA66
:103860002DA83307E04093E727003ACE3EC8F1B7D2
:10387000B387670385462E84BA973DBFFD57C5B70A
:10388000050402CA81468147254618209305140085
:10389000130707FD6374E606F9F20C200D461715B1
:1038A000000013056595092511CD97170000938732
:1038B000A7941D8D93070004B397A7004245050404
:1038C0005D8D2AC80C2019461715000013050593B5
:1038D000130914002304B102C12B35C197C7FFFFA0
:1038E0009387477295E74247B2471377071009CF8E
:1038F00091073EC69257D2973ED225BDB387670344
:1039000085462E84BA9751B79D07E19BA107D5B78D
:10391000780097060000938666D726860C084E85A9
:1039200097000000E7000000FD572A8AE314F5FC29
:10393000DE2493F70704E39207EC1255C1B5780033
:1039400097060000938686D426860C084E85012AA9
:10395000E1BF797156CA9C49BA8A984522D426D2C9
:103960004ECE52CC06D64AD05AC85EC6AA892E84FC
:10397000B284368A63D3E700BA879CC00347340415
:1039800019C385079CC01C4093F7070281C79C4060
:1039900089079CC00329040013796900631A090090
:1039A000130B9401FD5B5C449840998F634CF904C0
:1039B0001C408346340493F70702B336D000A5EBCE
:1039C00013063404D2854E85829AFD576303F504AD
:1039D0001C4011469840998B544481446397C7001A
:1039E000B384E64063D3040081441C441848635404
:1039F000F700998FBE94014969047D5B63982405A3
:103A0000014509A885465A86D2854E85829A631E4D
:103A100075017D55B250225492540259F249624ABE
:103A2000D24A424BB24B456182800509ADBF330794
:103A3000D40013060003A301C7040347540493876B
:103A40001600A2978906A381E7049DBF85462286BA
:103A5000D2854E85829AE30E65FB050945B77971DB
:103A600022D426D24AD04ECE06D652CC56CA5AC8F6
:103A7000B689942D930790063289AA842E841386E2
:103A80003504638DF60263E2D706930780056386EB
:103A9000F61863EDD700638E062093073004638E1B
:103AA000F60A930A24042301D404C9A0930730061C
:103AB0006385F60A93074006E395F6FE1C4008432B
:103AC00093F6070893054500C5C61C410CC363D88F
:103AD00007001307D002B307F040A301E4049706E0
:103AE000000093862672294765A893070007638222
:103AF000F61663E5D7029307E0066389F618930785
:103B0000F006E390F6FA0C401C4313F80508138501
:103B100047006307080608C39C4385A8930750071E
:103B2000E383F6FE930780076389F6129307300755
:103B3000E399F6F61C43D04181459386470014C3B0
:103B400083AA070056858D2601C53305554148C017
:103B50005C401CC8A301040461A81C43930A24040C
:103B6000938647009C4314C32301F4048547D5B7CB
:103B700093F607041C410CC3B9DAC207C18781BFA1
:103B800093F5050408C3C9D99E231307F00663877C
:103B9000E60E970600009386E6662947A301040413
:103BA0004C400CC463C5050008406D9908C099E3FA
:103BB000B28A89CDB28AB3F5E702FD1AB6958C2197
:103BC0002380BA00B3D5E70263F0E70CA147631E78
:103BD000F7001C40858B91CB58401C4863C7E70019
:103BE00093070003A38FFAFEFD1A3306564110C84F
:103BF0004E87CA867000A2852685EFF09FD57D5A34
:103C0000631D450B7D55B250225492540259F2491E
:103C1000624AD24A424B45618280A382D50497060C
:103C200000009386265E0C40084313F805081C41EB
:103C30001105630D080208C313F7150001C793E5CA
:103C400005020CC04147B9FB0C4093F5F5FD0CC0D3
:103C5000B1B79C4193E707029CC193078007A30279
:103C6000F404970600009386265B75BF13F80504DD
:103C700008C3E30308FCC207C1837DBF97060000A9
:103C800093864658214719BFAE8735B794411C43E8
:103C9000CC4913F80608138547006306080008C3DB
:103CA0009C438CC339A008C393F606049C43F5DA01
:103CB0008EA323280400B28A25BF14485686CA85DD
:103CC00026858299E30045F51C40898B8DE7B24734
:103CD0004844E35AF5F23E853DB785465686CA8587
:103CE00026858299E30065F3050A5C443247998F83
:103CF000E345FAFEE9BF014A930A94017D5BF5B7FB
:103D0000411122C42A842E8523A6018E06C6EFE027
:103D1000BFF7FD576317F5009387C18E9C4391C38E
:103D20001CC0B240224441018280411122C42E8431
:103D30008395E50006C67922634905007C48AA9769
:103D40007CC8B2402244410182805E247D777D1789
:103D5000F98F5EA4FDB7DE25011122CC26CA4AC820
:103D60004EC606CE93F70710AA842E843289B689F0
:103D700091C78395E5008946014609225E247D7737
:103D80007D17F98F5EA48315E4006244F240CE866D
:103D90004A86B24942492685D244056125A8411187
:103DA00022C42E848395E50006C6C928FD575A24EF
:103DB000631AF500FD77FD17F98F5EA4B240224427
:103DC000410182808567D98F5EA468C8C5BF83958D
:103DD000E50005A8411122C42A842E85B2853686C5
:103DE00023A6018E06C6EFE05FE6FD576317F500D8
:103DF0009387C18E9C4391C31CC0B24022444101B1
:103E00008280411122C42A842E8523A6018E06C6F3
:103E1000C520FD576317F5009387C18E9C4391C35E
:103E20001CC0B240224441018280411122C42A8434
:103E30002E85B28523A6018E06C6C920FD576317BD
:103E4000F5009387C18E9C4391C31CC0B2402244AD
:103E500041018280411122C42A842E8523A6018E2D
:103E600006C65D20FD576317F5009387C18E9C43FE
:103E700091C31CC0B240224441018280411122C43E
:103E80002A842E85B285368623A6018E06C6592041
:103E9000FD576317F5009387C18E9C4391C31CC0E7
:103EA000B24022444101828093F5F50F2A966314B3
:103EB000C500014582801C21E38EB7FE0505C5BF04
:103EC00082808280411122C42A842E85B285368662
:103ED00023A6018E06C6A920FD576317F500938718
:103EE000C18E9C4391C31CC0B240224441018280D8
:103EF0009307800523A6F18E7D5582809307800568
:103F000023A6F18E7D5582809307800523A6F18E2E
:103F1000014582809307800523A6F18E7D5582801E
:103F20009307800523A6F18E7D55828075736220EC
:103F3000656E746572206C6F7720706F7765722084
:103F40006D6F64650D000000757362206C656176AD
:103F500065206C6F7720706F776572206D6F646578
:103F60000D00000009023B00020100A0320904001C
:103F7000000103010100092111010001223E000797
:103F800005810308000A0904010001030102000978
:103F90002110010001223400070582030400010002
:103FA0001201100100000040861A00FE000101020B
:103FB0000001000005010906A101050719E029E734
:103FC000150025017501950881029501750881018B
:103FD00095037501050819012903910295057501DD
:103FE00091019506750826FF0005071900299181A2
:103FF00000C0000005010902A1010901A100050995
:104000001901290315002501750195038102750524
:104010009501810105010930093109381581257F94
:10402000750895038106C0C01203430048003300A1
:104030003200560032003000780000000E03770096
:10404000630068002E0063006E0000000A1B000081
:104050001C1B00002C1B0000341B00004A1B00002E
:10406000681B000053797374656D436C6B3A25646B
:104070000D0A000055534244204B6579626F61720E
:1040800064264D6F7573652044656D6F0D000000EB
:1040900055534152543220496E6974204F4B210DC3
:1040A000000000004B42205363616E20496E69742A
:1040B000204F4B210D0000004D53205363616E20B3
:1040C000496E6974204F4B210D00000054494D3357
:1040D00020496E6974204F4B210D00005475726E9B
:1040E000206F6E20746865204E554D204C45440D60
:1040F000000000005475726E206F6666207468655B
:10410000204E554D204C45440D0000005475726EF4
:10411000206F6E207468652043415053204C454405
:104120000D0000005475726E206F6666207468651D
:104130002043415053204C45440D00005475726E8D
:10414000206F6E20746865205343524F4C4C204CB6
:1041500045440D005475726E206F66662074686564
:10416000205343524F4C4C204C45440D000000005E
:10417000536C6565700D00005553422057616B65A7
:104180002055700057616B650D00000000000000B5
:10419000000000000000000000000000000000001F
:1041A000000000000000000000000000000000000F
:1041B00000000000000000000000000000000000FF
:1041C00000000000000000000000000000000000EF
:1041D00000000000000000000000000000000000DF
:1041E000000000000000000000000000232D302B24
:1041F00020000000686C4C0065666745464700007B
:10420000303132333435363738394142434445460C
:1042100000000000303132333435363738396162CE
:08422000636465660000000004
:104228001603300031003200330034003500360008
:104238003700380039000000441300004A1300001A
:104248008E0A00008E0A00008E0A00008E0A000006
:104258008E0A00008E0A00008E0A00008E0A0000F6
:104268008E0A00008E0A00008E0A00008E0A0000E6
:104278001817000074170000DC150000D2190000A0
:10428800EE15000090160000DE150000361900003B
:10429800461900005A190000000000004000000004
:1042A800763F0000090000008F3F00000900000071
:1042B800B43F00003E000000F43F0000340000005E
:1042C80098010020040000003C4000000E0000009F
:1042D8002840000012000000000000201600000026
:1042E8008E0A0000AA1500008E0A00008E0A00003F
:1042F8008E0A0000CE1500008E0A0000C0150000CE
:10430800B8150000000000000000000001020304CE
:104318000607080900000000010203040102030463
:104328000607080900000000AC410000CC4100006D
:104338008C410000000000000000000000000000A8
:104348000000000000000000000000000000000065
:104358000000000000000000000000000000000055
:104368000000000000000000000000000000000045
:104378000000000000000000000000000000000035
:104388000000000000000000643F00003B00000047
:10439800A03F00001200000003010000010000001F
:1043A80000D8B80500F000F0F0000000020406088C
:1043B800580200200401002004030904040100201D
:00000001FF
